{
  "contractName": "NFTCont",
  "abi": [
    {
      "inputs": [],
      "stateMutability": "nonpayable",
      "type": "constructor"
    },
    {
      "anonymous": false,
      "inputs": [
        {
          "indexed": true,
          "internalType": "address",
          "name": "owner",
          "type": "address"
        },
        {
          "indexed": true,
          "internalType": "address",
          "name": "approved",
          "type": "address"
        },
        {
          "indexed": true,
          "internalType": "uint256",
          "name": "tokenId",
          "type": "uint256"
        }
      ],
      "name": "Approval",
      "type": "event"
    },
    {
      "anonymous": false,
      "inputs": [
        {
          "indexed": true,
          "internalType": "address",
          "name": "owner",
          "type": "address"
        },
        {
          "indexed": true,
          "internalType": "address",
          "name": "operator",
          "type": "address"
        },
        {
          "indexed": false,
          "internalType": "bool",
          "name": "approved",
          "type": "bool"
        }
      ],
      "name": "ApprovalForAll",
      "type": "event"
    },
    {
      "anonymous": false,
      "inputs": [
        {
          "indexed": true,
          "internalType": "address",
          "name": "from",
          "type": "address"
        },
        {
          "indexed": true,
          "internalType": "address",
          "name": "to",
          "type": "address"
        },
        {
          "indexed": true,
          "internalType": "uint256",
          "name": "tokenId",
          "type": "uint256"
        }
      ],
      "name": "Transfer",
      "type": "event"
    },
    {
      "inputs": [
        {
          "internalType": "address",
          "name": "to",
          "type": "address"
        },
        {
          "internalType": "uint256",
          "name": "tokenId",
          "type": "uint256"
        }
      ],
      "name": "approve",
      "outputs": [],
      "stateMutability": "nonpayable",
      "type": "function"
    },
    {
      "inputs": [
        {
          "internalType": "address",
          "name": "owner",
          "type": "address"
        }
      ],
      "name": "balanceOf",
      "outputs": [
        {
          "internalType": "uint256",
          "name": "",
          "type": "uint256"
        }
      ],
      "stateMutability": "view",
      "type": "function",
      "constant": true
    },
    {
      "inputs": [
        {
          "internalType": "uint256",
          "name": "tokenId",
          "type": "uint256"
        }
      ],
      "name": "getApproved",
      "outputs": [
        {
          "internalType": "address",
          "name": "",
          "type": "address"
        }
      ],
      "stateMutability": "view",
      "type": "function",
      "constant": true
    },
    {
      "inputs": [
        {
          "internalType": "address",
          "name": "owner",
          "type": "address"
        },
        {
          "internalType": "address",
          "name": "operator",
          "type": "address"
        }
      ],
      "name": "isApprovedForAll",
      "outputs": [
        {
          "internalType": "bool",
          "name": "",
          "type": "bool"
        }
      ],
      "stateMutability": "view",
      "type": "function",
      "constant": true
    },
    {
      "inputs": [],
      "name": "name",
      "outputs": [
        {
          "internalType": "string",
          "name": "",
          "type": "string"
        }
      ],
      "stateMutability": "view",
      "type": "function",
      "constant": true
    },
    {
      "inputs": [
        {
          "internalType": "uint256",
          "name": "tokenId",
          "type": "uint256"
        }
      ],
      "name": "ownerOf",
      "outputs": [
        {
          "internalType": "address",
          "name": "",
          "type": "address"
        }
      ],
      "stateMutability": "view",
      "type": "function",
      "constant": true
    },
    {
      "inputs": [
        {
          "internalType": "address",
          "name": "from",
          "type": "address"
        },
        {
          "internalType": "address",
          "name": "to",
          "type": "address"
        },
        {
          "internalType": "uint256",
          "name": "tokenId",
          "type": "uint256"
        }
      ],
      "name": "safeTransferFrom",
      "outputs": [],
      "stateMutability": "nonpayable",
      "type": "function"
    },
    {
      "inputs": [
        {
          "internalType": "address",
          "name": "from",
          "type": "address"
        },
        {
          "internalType": "address",
          "name": "to",
          "type": "address"
        },
        {
          "internalType": "uint256",
          "name": "tokenId",
          "type": "uint256"
        },
        {
          "internalType": "bytes",
          "name": "_data",
          "type": "bytes"
        }
      ],
      "name": "safeTransferFrom",
      "outputs": [],
      "stateMutability": "nonpayable",
      "type": "function"
    },
    {
      "inputs": [
        {
          "internalType": "address",
          "name": "operator",
          "type": "address"
        },
        {
          "internalType": "bool",
          "name": "approved",
          "type": "bool"
        }
      ],
      "name": "setApprovalForAll",
      "outputs": [],
      "stateMutability": "nonpayable",
      "type": "function"
    },
    {
      "inputs": [
        {
          "internalType": "bytes4",
          "name": "interfaceId",
          "type": "bytes4"
        }
      ],
      "name": "supportsInterface",
      "outputs": [
        {
          "internalType": "bool",
          "name": "",
          "type": "bool"
        }
      ],
      "stateMutability": "view",
      "type": "function",
      "constant": true
    },
    {
      "inputs": [],
      "name": "symbol",
      "outputs": [
        {
          "internalType": "string",
          "name": "",
          "type": "string"
        }
      ],
      "stateMutability": "view",
      "type": "function",
      "constant": true
    },
    {
      "inputs": [],
      "name": "tokenCounter",
      "outputs": [
        {
          "internalType": "uint256",
          "name": "",
          "type": "uint256"
        }
      ],
      "stateMutability": "view",
      "type": "function",
      "constant": true
    },
    {
      "inputs": [
        {
          "internalType": "uint256",
          "name": "tokenId",
          "type": "uint256"
        }
      ],
      "name": "tokenURI",
      "outputs": [
        {
          "internalType": "string",
          "name": "",
          "type": "string"
        }
      ],
      "stateMutability": "view",
      "type": "function",
      "constant": true
    },
    {
      "inputs": [
        {
          "internalType": "address",
          "name": "from",
          "type": "address"
        },
        {
          "internalType": "address",
          "name": "to",
          "type": "address"
        },
        {
          "internalType": "uint256",
          "name": "tokenId",
          "type": "uint256"
        }
      ],
      "name": "transferFrom",
      "outputs": [],
      "stateMutability": "nonpayable",
      "type": "function"
    },
    {
      "inputs": [
        {
          "internalType": "address",
          "name": "recipient",
          "type": "address"
        }
      ],
      "name": "createNFT",
      "outputs": [
        {
          "internalType": "uint256",
          "name": "",
          "type": "uint256"
        }
      ],
      "stateMutability": "nonpayable",
      "type": "function"
    }
  ],
  "bytecode": "0x60806040523480156200001157600080fd5b506040518060400160405280600581526020017f4d794e46540000000000000000000000000000000000000000000000000000008152506040518060400160405280600481526020017f4d4e465400000000000000000000000000000000000000000000000000000000815250816000908051906020019062000096929190620000c0565b508060019080519060200190620000af929190620000c0565b5050506000600681905550620001d5565b828054620000ce9062000170565b90600052602060002090601f016020900481019282620000f257600085556200013e565b82601f106200010d57805160ff19168380011785556200013e565b828001600101855582156200013e579182015b828111156200013d57825182559160200191906001019062000120565b5b5090506200014d919062000151565b5090565b5b808211156200016c57600081600090555060010162000152565b5090565b600060028204905060018216806200018957607f821691505b60208210811415620001a0576200019f620001a6565b5b50919050565b7f4e487b7100000000000000000000000000000000000000000000000000000000600052602260045260246000fd5b6126a380620001e56000396000f3fe608060405234801561001057600080fd5b50600436106100f55760003560e01c80636352211e11610097578063b88d4fde11610066578063b88d4fde14610296578063c87b56dd146102b2578063d082e381146102e2578063e985e9c514610300576100f5565b80636352211e146101fc57806370a082311461022c57806395d89b411461025c578063a22cb4651461027a576100f5565b8063095ea7b3116100d3578063095ea7b31461017857806317e5883c1461019457806323b872dd146101c457806342842e0e146101e0576100f5565b806301ffc9a7146100fa57806306fdde031461012a578063081812fc14610148575b600080fd5b610114600480360381019061010f9190611973565b610330565b604051610121919061206b565b60405180910390f35b610132610412565b60405161013f9190612086565b60405180910390f35b610162600480360381019061015d91906119c5565b6104a4565b60405161016f9190612004565b60405180910390f35b610192600480360381019061018d9190611937565b610529565b005b6101ae60048036038101906101a991906117cc565b610641565b6040516101bb9190612268565b60405180910390f35b6101de60048036038101906101d99190611831565b610674565b005b6101fa60048036038101906101f59190611831565b6106d4565b005b610216600480360381019061021191906119c5565b6106f4565b6040516102239190612004565b60405180910390f35b610246600480360381019061024191906117cc565b6107a6565b6040516102539190612268565b60405180910390f35b61026461085e565b6040516102719190612086565b60405180910390f35b610294600480360381019061028f91906118fb565b6108f0565b005b6102b060048036038101906102ab9190611880565b610a71565b005b6102cc60048036038101906102c791906119c5565b610ad3565b6040516102d99190612086565b60405180910390f35b6102ea610b7a565b6040516102f79190612268565b60405180910390f35b61031a600480360381019061031591906117f5565b610b80565b604051610327919061206b565b60405180910390f35b60007f80ac58cd000000000000000000000000000000000000000000000000000000007bffffffffffffffffffffffffffffffffffffffffffffffffffffffff1916827bffffffffffffffffffffffffffffffffffffffffffffffffffffffff191614806103fb57507f5b5e139f000000000000000000000000000000000000000000000000000000007bffffffffffffffffffffffffffffffffffffffffffffffffffffffff1916827bffffffffffffffffffffffffffffffffffffffffffffffffffffffff1916145b8061040b575061040a82610c14565b5b9050919050565b60606000805461042190612498565b80601f016020809104026020016040519081016040528092919081815260200182805461044d90612498565b801561049a5780601f1061046f5761010080835404028352916020019161049a565b820191906000526020600020905b81548152906001019060200180831161047d57829003601f168201915b5050505050905090565b60006104af82610c7e565b6104ee576040517f08c379a00000000000000000000000000000000000000000000000000000000081526004016104e5906121c8565b60405180910390fd5b6004600083815260200190815260200160002060009054906101000a900473ffffffffffffffffffffffffffffffffffffffff169050919050565b6000610534826106f4565b90508073ffffffffffffffffffffffffffffffffffffffff168373ffffffffffffffffffffffffffffffffffffffff1614156105a5576040517f08c379a000000000000000000000000000000000000000000000000000000000815260040161059c90612228565b60405180910390fd5b8073ffffffffffffffffffffffffffffffffffffffff166105c4610cea565b73ffffffffffffffffffffffffffffffffffffffff1614806105f357506105f2816105ed610cea565b610b80565b5b610632576040517f08c379a000000000000000000000000000000000000000000000000000000000815260040161062990612148565b60405180910390fd5b61063c8383610cf2565b505050565b60008060065490506106538382610dab565b60066000815480929190610666906124ca565b919050555080915050919050565b61068561067f610cea565b82610dc9565b6106c4576040517f08c379a00000000000000000000000000000000000000000000000000000000081526004016106bb90612248565b60405180910390fd5b6106cf838383610ea7565b505050565b6106ef83838360405180602001604052806000815250610a71565b505050565b6000806002600084815260200190815260200160002060009054906101000a900473ffffffffffffffffffffffffffffffffffffffff169050600073ffffffffffffffffffffffffffffffffffffffff168173ffffffffffffffffffffffffffffffffffffffff16141561079d576040517f08c379a000000000000000000000000000000000000000000000000000000000815260040161079490612188565b60405180910390fd5b80915050919050565b60008073ffffffffffffffffffffffffffffffffffffffff168273ffffffffffffffffffffffffffffffffffffffff161415610817576040517f08c379a000000000000000000000000000000000000000000000000000000000815260040161080e90612168565b60405180910390fd5b600360008373ffffffffffffffffffffffffffffffffffffffff1673ffffffffffffffffffffffffffffffffffffffff168152602001908152602001600020549050919050565b60606001805461086d90612498565b80601f016020809104026020016040519081016040528092919081815260200182805461089990612498565b80156108e65780601f106108bb576101008083540402835291602001916108e6565b820191906000526020600020905b8154815290600101906020018083116108c957829003601f168201915b5050505050905090565b6108f8610cea565b73ffffffffffffffffffffffffffffffffffffffff168273ffffffffffffffffffffffffffffffffffffffff161415610966576040517f08c379a000000000000000000000000000000000000000000000000000000000815260040161095d90612108565b60405180910390fd5b8060056000610973610cea565b73ffffffffffffffffffffffffffffffffffffffff1673ffffffffffffffffffffffffffffffffffffffff16815260200190815260200160002060008473ffffffffffffffffffffffffffffffffffffffff1673ffffffffffffffffffffffffffffffffffffffff16815260200190815260200160002060006101000a81548160ff0219169083151502179055508173ffffffffffffffffffffffffffffffffffffffff16610a20610cea565b73ffffffffffffffffffffffffffffffffffffffff167f17307eab39ab6107e8899845ad3d59bd9653f200f220920489ca2b5937696c3183604051610a65919061206b565b60405180910390a35050565b610a82610a7c610cea565b83610dc9565b610ac1576040517f08c379a0000000000000000000000000000000000000000000000000000000008152600401610ab890612248565b60405180910390fd5b610acd84848484611103565b50505050565b6060610ade82610c7e565b610b1d576040517f08c379a0000000000000000000000000000000000000000000000000000000008152600401610b1490612208565b60405180910390fd5b6000610b2761115f565b90506000815111610b475760405180602001604052806000815250610b72565b80610b5184611176565b604051602001610b62929190611fe0565b6040516020818303038152906040525b915050919050565b60065481565b6000600560008473ffffffffffffffffffffffffffffffffffffffff1673ffffffffffffffffffffffffffffffffffffffff16815260200190815260200160002060008373ffffffffffffffffffffffffffffffffffffffff1673ffffffffffffffffffffffffffffffffffffffff16815260200190815260200160002060009054906101000a900460ff16905092915050565b60007f01ffc9a7000000000000000000000000000000000000000000000000000000007bffffffffffffffffffffffffffffffffffffffffffffffffffffffff1916827bffffffffffffffffffffffffffffffffffffffffffffffffffffffff1916149050919050565b60008073ffffffffffffffffffffffffffffffffffffffff166002600084815260200190815260200160002060009054906101000a900473ffffffffffffffffffffffffffffffffffffffff1673ffffffffffffffffffffffffffffffffffffffff1614159050919050565b600033905090565b816004600083815260200190815260200160002060006101000a81548173ffffffffffffffffffffffffffffffffffffffff021916908373ffffffffffffffffffffffffffffffffffffffff160217905550808273ffffffffffffffffffffffffffffffffffffffff16610d65836106f4565b73ffffffffffffffffffffffffffffffffffffffff167f8c5be1e5ebec7d5bd14f71427d1e84f3dd0314c0f7b2291e5b200ac8c7c3b92560405160405180910390a45050565b610dc5828260405180602001604052806000815250611323565b5050565b6000610dd482610c7e565b610e13576040517f08c379a0000000000000000000000000000000000000000000000000000000008152600401610e0a90612128565b60405180910390fd5b6000610e1e836106f4565b90508073ffffffffffffffffffffffffffffffffffffffff168473ffffffffffffffffffffffffffffffffffffffff161480610e8d57508373ffffffffffffffffffffffffffffffffffffffff16610e75846104a4565b73ffffffffffffffffffffffffffffffffffffffff16145b80610e9e5750610e9d8185610b80565b5b91505092915050565b8273ffffffffffffffffffffffffffffffffffffffff16610ec7826106f4565b73ffffffffffffffffffffffffffffffffffffffff1614610f1d576040517f08c379a0000000000000000000000000000000000000000000000000000000008152600401610f14906121e8565b60405180910390fd5b600073ffffffffffffffffffffffffffffffffffffffff168273ffffffffffffffffffffffffffffffffffffffff161415610f8d576040517f08c379a0000000000000000000000000000000000000000000000000000000008152600401610f84906120e8565b60405180910390fd5b610f9883838361137e565b610fa3600082610cf2565b6001600360008573ffffffffffffffffffffffffffffffffffffffff1673ffffffffffffffffffffffffffffffffffffffff1681526020019081526020016000206000828254610ff391906123ae565b925050819055506001600360008473ffffffffffffffffffffffffffffffffffffffff1673ffffffffffffffffffffffffffffffffffffffff168152602001908152602001600020600082825461104a9190612327565b92505081905550816002600083815260200190815260200160002060006101000a81548173ffffffffffffffffffffffffffffffffffffffff021916908373ffffffffffffffffffffffffffffffffffffffff160217905550808273ffffffffffffffffffffffffffffffffffffffff168473ffffffffffffffffffffffffffffffffffffffff167fddf252ad1be2c89b69c2b068fc378daa952ba7f163c4a11628f55a4df523b3ef60405160405180910390a4505050565b61110e848484610ea7565b61111a84848484611383565b611159576040517f08c379a0000000000000000000000000000000000000000000000000000000008152600401611150906120a8565b60405180910390fd5b50505050565b606060405180602001604052806000815250905090565b606060008214156111be576040518060400160405280600181526020017f3000000000000000000000000000000000000000000000000000000000000000815250905061131e565b600082905060005b600082146111f05780806111d9906124ca565b915050600a826111e9919061237d565b91506111c6565b60008167ffffffffffffffff811115611232577f4e487b7100000000000000000000000000000000000000000000000000000000600052604160045260246000fd5b6040519080825280601f01601f1916602001820160405280156112645781602001600182028036833780820191505090505b5090505b600085146113175760018261127d91906123ae565b9150600a8561128c9190612513565b60306112989190612327565b60f81b8183815181106112d4577f4e487b7100000000000000000000000000000000000000000000000000000000600052603260045260246000fd5b60200101907effffffffffffffffffffffffffffffffffffffffffffffffffffffffffffff1916908160001a905350600a85611310919061237d565b9450611268565b8093505050505b919050565b61132d838361151a565b61133a6000848484611383565b611379576040517f08c379a0000000000000000000000000000000000000000000000000000000008152600401611370906120a8565b60405180910390fd5b505050565b505050565b60006113a48473ffffffffffffffffffffffffffffffffffffffff166116e8565b1561150d578373ffffffffffffffffffffffffffffffffffffffff1663150b7a026113cd610cea565b8786866040518563ffffffff1660e01b81526004016113ef949392919061201f565b602060405180830381600087803b15801561140957600080fd5b505af192505050801561143a57506040513d601f19601f82011682018060405250810190611437919061199c565b60015b6114bd573d806000811461146a576040519150601f19603f3d011682016040523d82523d6000602084013e61146f565b606091505b506000815114156114b5576040517f08c379a00000000000000000000000000000000000000000000000000000000081526004016114ac906120a8565b60405180910390fd5b805181602001fd5b63150b7a0260e01b7bffffffffffffffffffffffffffffffffffffffffffffffffffffffff1916817bffffffffffffffffffffffffffffffffffffffffffffffffffffffff191614915050611512565b600190505b949350505050565b600073ffffffffffffffffffffffffffffffffffffffff168273ffffffffffffffffffffffffffffffffffffffff16141561158a576040517f08c379a0000000000000000000000000000000000000000000000000000000008152600401611581906121a8565b60405180910390fd5b61159381610c7e565b156115d3576040517f08c379a00000000000000000000000000000000000000000000000000000000081526004016115ca906120c8565b60405180910390fd5b6115df6000838361137e565b6001600360008473ffffffffffffffffffffffffffffffffffffffff1673ffffffffffffffffffffffffffffffffffffffff168152602001908152602001600020600082825461162f9190612327565b92505081905550816002600083815260200190815260200160002060006101000a81548173ffffffffffffffffffffffffffffffffffffffff021916908373ffffffffffffffffffffffffffffffffffffffff160217905550808273ffffffffffffffffffffffffffffffffffffffff16600073ffffffffffffffffffffffffffffffffffffffff167fddf252ad1be2c89b69c2b068fc378daa952ba7f163c4a11628f55a4df523b3ef60405160405180910390a45050565b600080823b905060008111915050919050565b600061170e611709846122b4565b612283565b90508281526020810184848401111561172657600080fd5b611731848285612456565b509392505050565b60008135905061174881612611565b92915050565b60008135905061175d81612628565b92915050565b6000813590506117728161263f565b92915050565b6000815190506117878161263f565b92915050565b600082601f83011261179e57600080fd5b81356117ae8482602086016116fb565b91505092915050565b6000813590506117c681612656565b92915050565b6000602082840312156117de57600080fd5b60006117ec84828501611739565b91505092915050565b6000806040838503121561180857600080fd5b600061181685828601611739565b925050602061182785828601611739565b9150509250929050565b60008060006060848603121561184657600080fd5b600061185486828701611739565b935050602061186586828701611739565b9250506040611876868287016117b7565b9150509250925092565b6000806000806080858703121561189657600080fd5b60006118a487828801611739565b94505060206118b587828801611739565b93505060406118c6878288016117b7565b925050606085013567ffffffffffffffff8111156118e357600080fd5b6118ef8782880161178d565b91505092959194509250565b6000806040838503121561190e57600080fd5b600061191c85828601611739565b925050602061192d8582860161174e565b9150509250929050565b6000806040838503121561194a57600080fd5b600061195885828601611739565b9250506020611969858286016117b7565b9150509250929050565b60006020828403121561198557600080fd5b600061199384828501611763565b91505092915050565b6000602082840312156119ae57600080fd5b60006119bc84828501611778565b91505092915050565b6000602082840312156119d757600080fd5b60006119e5848285016117b7565b91505092915050565b6119f7816123e2565b82525050565b611a06816123f4565b82525050565b6000611a17826122e4565b611a2181856122fa565b9350611a31818560208601612465565b611a3a81612600565b840191505092915050565b6000611a50826122ef565b611a5a818561230b565b9350611a6a818560208601612465565b611a7381612600565b840191505092915050565b6000611a89826122ef565b611a93818561231c565b9350611aa3818560208601612465565b80840191505092915050565b6000611abc60328361230b565b91507f4552433732313a207472616e7366657220746f206e6f6e20455243373231526560008301527f63656976657220696d706c656d656e74657200000000000000000000000000006020830152604082019050919050565b6000611b22601c8361230b565b91507f4552433732313a20746f6b656e20616c7265616479206d696e746564000000006000830152602082019050919050565b6000611b6260248361230b565b91507f4552433732313a207472616e7366657220746f20746865207a65726f2061646460008301527f72657373000000000000000000000000000000000000000000000000000000006020830152604082019050919050565b6000611bc860198361230b565b91507f4552433732313a20617070726f766520746f2063616c6c6572000000000000006000830152602082019050919050565b6000611c08602c8361230b565b91507f4552433732313a206f70657261746f7220717565727920666f72206e6f6e657860008301527f697374656e7420746f6b656e00000000000000000000000000000000000000006020830152604082019050919050565b6000611c6e60388361230b565b91507f4552433732313a20617070726f76652063616c6c6572206973206e6f74206f7760008301527f6e6572206e6f7220617070726f76656420666f7220616c6c00000000000000006020830152604082019050919050565b6000611cd4602a8361230b565b91507f4552433732313a2062616c616e636520717565727920666f7220746865207a6560008301527f726f2061646472657373000000000000000000000000000000000000000000006020830152604082019050919050565b6000611d3a60298361230b565b91507f4552433732313a206f776e657220717565727920666f72206e6f6e657869737460008301527f656e7420746f6b656e00000000000000000000000000000000000000000000006020830152604082019050919050565b6000611da060208361230b565b91507f4552433732313a206d696e7420746f20746865207a65726f20616464726573736000830152602082019050919050565b6000611de0602c8361230b565b91507f4552433732313a20617070726f76656420717565727920666f72206e6f6e657860008301527f697374656e7420746f6b656e00000000000000000000000000000000000000006020830152604082019050919050565b6000611e4660298361230b565b91507f4552433732313a207472616e73666572206f6620746f6b656e2074686174206960008301527f73206e6f74206f776e00000000000000000000000000000000000000000000006020830152604082019050919050565b6000611eac602f8361230b565b91507f4552433732314d657461646174613a2055524920717565727920666f72206e6f60008301527f6e6578697374656e7420746f6b656e00000000000000000000000000000000006020830152604082019050919050565b6000611f1260218361230b565b91507f4552433732313a20617070726f76616c20746f2063757272656e74206f776e6560008301527f72000000000000000000000000000000000000000000000000000000000000006020830152604082019050919050565b6000611f7860318361230b565b91507f4552433732313a207472616e736665722063616c6c6572206973206e6f74206f60008301527f776e6572206e6f7220617070726f7665640000000000000000000000000000006020830152604082019050919050565b611fda8161244c565b82525050565b6000611fec8285611a7e565b9150611ff88284611a7e565b91508190509392505050565b600060208201905061201960008301846119ee565b92915050565b600060808201905061203460008301876119ee565b61204160208301866119ee565b61204e6040830185611fd1565b81810360608301526120608184611a0c565b905095945050505050565b600060208201905061208060008301846119fd565b92915050565b600060208201905081810360008301526120a08184611a45565b905092915050565b600060208201905081810360008301526120c181611aaf565b9050919050565b600060208201905081810360008301526120e181611b15565b9050919050565b6000602082019050818103600083015261210181611b55565b9050919050565b6000602082019050818103600083015261212181611bbb565b9050919050565b6000602082019050818103600083015261214181611bfb565b9050919050565b6000602082019050818103600083015261216181611c61565b9050919050565b6000602082019050818103600083015261218181611cc7565b9050919050565b600060208201905081810360008301526121a181611d2d565b9050919050565b600060208201905081810360008301526121c181611d93565b9050919050565b600060208201905081810360008301526121e181611dd3565b9050919050565b6000602082019050818103600083015261220181611e39565b9050919050565b6000602082019050818103600083015261222181611e9f565b9050919050565b6000602082019050818103600083015261224181611f05565b9050919050565b6000602082019050818103600083015261226181611f6b565b9050919050565b600060208201905061227d6000830184611fd1565b92915050565b6000604051905081810181811067ffffffffffffffff821117156122aa576122a96125d1565b5b8060405250919050565b600067ffffffffffffffff8211156122cf576122ce6125d1565b5b601f19601f8301169050602081019050919050565b600081519050919050565b600081519050919050565b600082825260208201905092915050565b600082825260208201905092915050565b600081905092915050565b60006123328261244c565b915061233d8361244c565b9250827fffffffffffffffffffffffffffffffffffffffffffffffffffffffffffffffff0382111561237257612371612544565b5b828201905092915050565b60006123888261244c565b91506123938361244c565b9250826123a3576123a2612573565b5b828204905092915050565b60006123b98261244c565b91506123c48361244c565b9250828210156123d7576123d6612544565b5b828203905092915050565b60006123ed8261242c565b9050919050565b60008115159050919050565b60007fffffffff0000000000000000000000000000000000000000000000000000000082169050919050565b600073ffffffffffffffffffffffffffffffffffffffff82169050919050565b6000819050919050565b82818337600083830152505050565b60005b83811015612483578082015181840152602081019050612468565b83811115612492576000848401525b50505050565b600060028204905060018216806124b057607f821691505b602082108114156124c4576124c36125a2565b5b50919050565b60006124d58261244c565b91507fffffffffffffffffffffffffffffffffffffffffffffffffffffffffffffffff82141561250857612507612544565b5b600182019050919050565b600061251e8261244c565b91506125298361244c565b92508261253957612538612573565b5b828206905092915050565b7f4e487b7100000000000000000000000000000000000000000000000000000000600052601160045260246000fd5b7f4e487b7100000000000000000000000000000000000000000000000000000000600052601260045260246000fd5b7f4e487b7100000000000000000000000000000000000000000000000000000000600052602260045260246000fd5b7f4e487b7100000000000000000000000000000000000000000000000000000000600052604160045260246000fd5b6000601f19601f8301169050919050565b61261a816123e2565b811461262557600080fd5b50565b612631816123f4565b811461263c57600080fd5b50565b61264881612400565b811461265357600080fd5b50565b61265f8161244c565b811461266a57600080fd5b5056fea2646970667358221220b26e39f19b09a36c1b86efdf069a1e57fdc4b3137fc47c26d19313c0a06c1ef564736f6c63430008000033",
  "immutableReferences": {},
  "source": "// SPDX-License-Identifier: MIT\r\npragma solidity ^0.8.0;\r\n\r\nimport \"@openzeppelin/contracts/token/ERC721/ERC721.sol\";\r\n\r\ncontract NFTCont is ERC721 {\r\n    uint256 public tokenCounter;\r\n\r\n    constructor() ERC721(\"MyNFT\", \"MNFT\") {\r\n        tokenCounter = 0;\r\n    }\r\n\r\n    function createNFT(address recipient) public returns (uint256) {\r\n        uint256 newTokenId = tokenCounter;\r\n        _safeMint(recipient, newTokenId);\r\n        tokenCounter++;\r\n        return newTokenId;\r\n    }\r\n}",
  "sourcePath": "C:\\Users\\Abdullah Waseem\\Music\\Techverx\\Blockchain\\drf_basic_frontend\\contracts\\NFTCont.sol",
  "compiler": {
    "name": "solc",
    "version": "0.8.0+commit.c7dfd78e.Emscripten.clang"
  },
  "schemaVersion": "3.4.16",
  "updatedAt": "2024-10-02T14:29:55.703Z",
  "networkType": "ethereum",
  "devdoc": {
    "kind": "dev",
    "methods": {
      "approve(address,uint256)": {
        "details": "See {IERC721-approve}."
      },
      "balanceOf(address)": {
        "details": "See {IERC721-balanceOf}."
      },
      "getApproved(uint256)": {
        "details": "See {IERC721-getApproved}."
      },
      "isApprovedForAll(address,address)": {
        "details": "See {IERC721-isApprovedForAll}."
      },
      "name()": {
        "details": "See {IERC721Metadata-name}."
      },
      "ownerOf(uint256)": {
        "details": "See {IERC721-ownerOf}."
      },
      "safeTransferFrom(address,address,uint256)": {
        "details": "See {IERC721-safeTransferFrom}."
      },
      "safeTransferFrom(address,address,uint256,bytes)": {
        "details": "See {IERC721-safeTransferFrom}."
      },
      "setApprovalForAll(address,bool)": {
        "details": "See {IERC721-setApprovalForAll}."
      },
      "supportsInterface(bytes4)": {
        "details": "See {IERC165-supportsInterface}."
      },
      "symbol()": {
        "details": "See {IERC721Metadata-symbol}."
      },
      "tokenURI(uint256)": {
        "details": "See {IERC721Metadata-tokenURI}."
      },
      "transferFrom(address,address,uint256)": {
        "details": "See {IERC721-transferFrom}."
      }
    },
    "version": 1
  },
  "userdoc": {
    "kind": "user",
    "methods": {},
    "version": 1
  }
}