{
  "_format": "hh-sol-artifact-1",
  "contractName": "Marketplace",
  "sourceName": "contracts/Marketplace.sol",
  "abi": [
    {
      "inputs": [
        {
          "internalType": "uint256",
          "name": "_feePercent",
          "type": "uint256"
        }
      ],
      "stateMutability": "nonpayable",
      "type": "constructor"
    },
    {
      "anonymous": false,
      "inputs": [
        {
          "indexed": false,
          "internalType": "uint256",
          "name": "itemId",
          "type": "uint256"
        },
        {
          "indexed": true,
          "internalType": "address",
          "name": "nft",
          "type": "address"
        },
        {
          "indexed": false,
          "internalType": "uint256",
          "name": "tokenId",
          "type": "uint256"
        },
        {
          "indexed": false,
          "internalType": "uint256",
          "name": "price",
          "type": "uint256"
        },
        {
          "indexed": true,
          "internalType": "address",
          "name": "seller",
          "type": "address"
        },
        {
          "indexed": true,
          "internalType": "address",
          "name": "buyer",
          "type": "address"
        }
      ],
      "name": "Bought",
      "type": "event"
    },
    {
      "anonymous": false,
      "inputs": [
        {
          "indexed": false,
          "internalType": "uint256",
          "name": "itemId",
          "type": "uint256"
        },
        {
          "indexed": true,
          "internalType": "address",
          "name": "nft",
          "type": "address"
        },
        {
          "indexed": false,
          "internalType": "uint256",
          "name": "tokenId",
          "type": "uint256"
        },
        {
          "indexed": false,
          "internalType": "uint256",
          "name": "price",
          "type": "uint256"
        },
        {
          "indexed": true,
          "internalType": "address",
          "name": "seller",
          "type": "address"
        }
      ],
      "name": "Offered",
      "type": "event"
    },
    {
      "inputs": [],
      "name": "feeAccount",
      "outputs": [
        {
          "internalType": "address payable",
          "name": "",
          "type": "address"
        }
      ],
      "stateMutability": "view",
      "type": "function"
    },
    {
      "inputs": [],
      "name": "feePercent",
      "outputs": [
        {
          "internalType": "uint256",
          "name": "",
          "type": "uint256"
        }
      ],
      "stateMutability": "view",
      "type": "function"
    },
    {
      "inputs": [],
      "name": "itemCount",
      "outputs": [
        {
          "internalType": "uint256",
          "name": "",
          "type": "uint256"
        }
      ],
      "stateMutability": "view",
      "type": "function"
    },
    {
      "inputs": [
        {
          "internalType": "uint256",
          "name": "",
          "type": "uint256"
        }
      ],
      "name": "items",
      "outputs": [
        {
          "internalType": "uint256",
          "name": "itemId",
          "type": "uint256"
        },
        {
          "internalType": "contract IERC721",
          "name": "nft",
          "type": "address"
        },
        {
          "internalType": "uint256",
          "name": "tokenId",
          "type": "uint256"
        },
        {
          "internalType": "uint256",
          "name": "price",
          "type": "uint256"
        },
        {
          "internalType": "address payable",
          "name": "seller",
          "type": "address"
        },
        {
          "internalType": "bool",
          "name": "sold",
          "type": "bool"
        }
      ],
      "stateMutability": "view",
      "type": "function"
    },
    {
      "inputs": [
        {
          "internalType": "contract IERC721",
          "name": "_nft",
          "type": "address"
        },
        {
          "internalType": "uint256",
          "name": "_tokenId",
          "type": "uint256"
        },
        {
          "internalType": "uint256",
          "name": "_price",
          "type": "uint256"
        }
      ],
      "name": "makeItem",
      "outputs": [],
      "stateMutability": "nonpayable",
      "type": "function"
    }
  ],
  "bytecode": "0x60c060405234801561001057600080fd5b50604051610a11380380610a1183398181016040528101906100329190610094565b60016000819055503373ffffffffffffffffffffffffffffffffffffffff1660808173ffffffffffffffffffffffffffffffffffffffff1660601b815250508060a08181525050506100de565b60008151905061008e816100c7565b92915050565b6000602082840312156100a657600080fd5b60006100b48482850161007f565b91505092915050565b6000819050919050565b6100d0816100bd565b81146100db57600080fd5b50565b60805160601c60a05161090b610106600039600061013301526000610109015261090b6000f3fe608060405234801561001057600080fd5b50600436106100575760003560e01c806365e17c9d1461005c5780636bfb0d011461007a5780637fd6f15c14610098578063bfb231d2146100b6578063fa00afc7146100eb575b600080fd5b610064610107565b60405161007191906105f7565b60405180910390f35b61008261012b565b60405161008f9190610689565b60405180910390f35b6100a0610131565b6040516100ad9190610689565b60405180910390f35b6100d060048036038101906100cb919061053d565b610155565b6040516100e2969594939291906106a4565b60405180910390f35b610105600480360381019061010091906104ee565b6101de565b005b7f000000000000000000000000000000000000000000000000000000000000000081565b60015481565b7f000000000000000000000000000000000000000000000000000000000000000081565b60026020528060005260406000206000915090508060000154908060010160009054906101000a900473ffffffffffffffffffffffffffffffffffffffff16908060020154908060030154908060040160009054906101000a900473ffffffffffffffffffffffffffffffffffffffff16908060040160149054906101000a900460ff16905086565b6101e661046a565b60008111610229576040517f08c379a000000000000000000000000000000000000000000000000000000000815260040161022090610649565b60405180910390fd5b6001600081548092919061023c906107dd565b91905055508273ffffffffffffffffffffffffffffffffffffffff166323b872dd3330856040518463ffffffff1660e01b815260040161027e93929190610612565b600060405180830381600087803b15801561029857600080fd5b505af11580156102ac573d6000803e3d6000fd5b505050506040518060c0016040528060015481526020018473ffffffffffffffffffffffffffffffffffffffff1681526020018381526020018281526020013373ffffffffffffffffffffffffffffffffffffffff168152602001600015158152506002600060015481526020019081526020016000206000820151816000015560208201518160010160006101000a81548173ffffffffffffffffffffffffffffffffffffffff021916908373ffffffffffffffffffffffffffffffffffffffff160217905550604082015181600201556060820151816003015560808201518160040160006101000a81548173ffffffffffffffffffffffffffffffffffffffff021916908373ffffffffffffffffffffffffffffffffffffffff16021790555060a08201518160040160146101000a81548160ff0219169083151502179055509050503373ffffffffffffffffffffffffffffffffffffffff168373ffffffffffffffffffffffffffffffffffffffff167f655a0cf9c8db81512be9a76dc1c5ae5380b8816ce6ad659cd61b715e2999d59a600154858560405161045593929190610705565b60405180910390a36104656104ba565b505050565b600260005414156104b0576040517f08c379a00000000000000000000000000000000000000000000000000000000081526004016104a790610669565b60405180910390fd5b6002600081905550565b6001600081905550565b6000813590506104d3816108a7565b92915050565b6000813590506104e8816108be565b92915050565b60008060006060848603121561050357600080fd5b6000610511868287016104c4565b9350506020610522868287016104d9565b9250506040610533868287016104d9565b9150509250925092565b60006020828403121561054f57600080fd5b600061055d848285016104d9565b91505092915050565b61056f8161075f565b82525050565b61057e8161074d565b82525050565b61058d81610771565b82525050565b61059c816107b9565b82525050565b60006105af601f8361073c565b91506105ba82610855565b602082019050919050565b60006105d2601f8361073c565b91506105dd8261087e565b602082019050919050565b6105f1816107af565b82525050565b600060208201905061060c6000830184610566565b92915050565b60006060820190506106276000830186610575565b6106346020830185610575565b61064160408301846105e8565b949350505050565b60006020820190508181036000830152610662816105a2565b9050919050565b60006020820190508181036000830152610682816105c5565b9050919050565b600060208201905061069e60008301846105e8565b92915050565b600060c0820190506106b960008301896105e8565b6106c66020830188610593565b6106d360408301876105e8565b6106e060608301866105e8565b6106ed6080830185610566565b6106fa60a0830184610584565b979650505050505050565b600060608201905061071a60008301866105e8565b61072760208301856105e8565b61073460408301846105e8565b949350505050565b600082825260208201905092915050565b60006107588261078f565b9050919050565b600061076a8261078f565b9050919050565b60008115159050919050565b60006107888261074d565b9050919050565b600073ffffffffffffffffffffffffffffffffffffffff82169050919050565b6000819050919050565b60006107c4826107cb565b9050919050565b60006107d68261078f565b9050919050565b60006107e8826107af565b91507fffffffffffffffffffffffffffffffffffffffffffffffffffffffffffffffff82141561081b5761081a610826565b5b600182019050919050565b7f4e487b7100000000000000000000000000000000000000000000000000000000600052601160045260246000fd5b7f5072696365206d7573742062652067726561746572207468616e207a65726f00600082015250565b7f5265656e7472616e637947756172643a207265656e7472616e742063616c6c00600082015250565b6108b08161077d565b81146108bb57600080fd5b50565b6108c7816107af565b81146108d257600080fd5b5056fea264697066735822122017e791bf2832f788f27f8fc6e0bfbed7dfd35d4eae28925c527eaa4906ea82ee64736f6c63430008040033",
  "linkReferences": {},
  "deployedLinkReferences": {}
}