{
  "_format": "hh-sol-artifact-1",
  "contractName": "Marketplace",
  "sourceName": "src/backend/contracts/Marketplace.sol",
  "abi": [
    {
      "inputs": [
        {
          "internalType": "uint256",
          "name": "_feePercent",
          "type": "uint256"
        }
      ],
      "stateMutability": "nonpayable",
      "type": "constructor"
    },
    {
      "anonymous": false,
      "inputs": [
        {
          "indexed": false,
          "internalType": "uint256",
          "name": "itemId",
          "type": "uint256"
        },
        {
          "indexed": true,
          "internalType": "address",
          "name": "nft",
          "type": "address"
        },
        {
          "indexed": false,
          "internalType": "uint256",
          "name": "tokenId",
          "type": "uint256"
        },
        {
          "indexed": false,
          "internalType": "uint256",
          "name": "price",
          "type": "uint256"
        },
        {
          "indexed": true,
          "internalType": "address",
          "name": "seller",
          "type": "address"
        },
        {
          "indexed": true,
          "internalType": "address",
          "name": "buyer",
          "type": "address"
        },
        {
          "indexed": false,
          "internalType": "uint256",
          "name": "quantity",
          "type": "uint256"
        }
      ],
      "name": "Bought",
      "type": "event"
    },
    {
      "anonymous": false,
      "inputs": [
        {
          "indexed": false,
          "internalType": "uint256",
          "name": "itemId",
          "type": "uint256"
        },
        {
          "indexed": true,
          "internalType": "address",
          "name": "nft",
          "type": "address"
        },
        {
          "indexed": false,
          "internalType": "uint256",
          "name": "tokenId",
          "type": "uint256"
        },
        {
          "indexed": false,
          "internalType": "uint256",
          "name": "price",
          "type": "uint256"
        },
        {
          "indexed": true,
          "internalType": "address",
          "name": "seller",
          "type": "address"
        },
        {
          "indexed": false,
          "internalType": "uint256",
          "name": "quantity",
          "type": "uint256"
        }
      ],
      "name": "Offered",
      "type": "event"
    },
    {
      "inputs": [],
      "name": "feeAccount",
      "outputs": [
        {
          "internalType": "address payable",
          "name": "",
          "type": "address"
        }
      ],
      "stateMutability": "view",
      "type": "function"
    },
    {
      "inputs": [],
      "name": "feePercent",
      "outputs": [
        {
          "internalType": "uint256",
          "name": "",
          "type": "uint256"
        }
      ],
      "stateMutability": "view",
      "type": "function"
    },
    {
      "inputs": [
        {
          "internalType": "uint256",
          "name": "_itemId",
          "type": "uint256"
        }
      ],
      "name": "getTotalPrice",
      "outputs": [
        {
          "internalType": "uint256",
          "name": "",
          "type": "uint256"
        }
      ],
      "stateMutability": "view",
      "type": "function"
    },
    {
      "inputs": [],
      "name": "itemCount",
      "outputs": [
        {
          "internalType": "uint256",
          "name": "",
          "type": "uint256"
        }
      ],
      "stateMutability": "view",
      "type": "function"
    },
    {
      "inputs": [
        {
          "internalType": "uint256",
          "name": "",
          "type": "uint256"
        }
      ],
      "name": "items",
      "outputs": [
        {
          "internalType": "uint256",
          "name": "itemId",
          "type": "uint256"
        },
        {
          "internalType": "contract IERC721",
          "name": "nft",
          "type": "address"
        },
        {
          "internalType": "uint256",
          "name": "tokenId",
          "type": "uint256"
        },
        {
          "internalType": "uint256",
          "name": "price",
          "type": "uint256"
        },
        {
          "internalType": "address payable",
          "name": "seller",
          "type": "address"
        },
        {
          "internalType": "uint256",
          "name": "quantity",
          "type": "uint256"
        },
        {
          "internalType": "uint256",
          "name": "sold",
          "type": "uint256"
        }
      ],
      "stateMutability": "view",
      "type": "function"
    },
    {
      "inputs": [
        {
          "internalType": "contract IERC721",
          "name": "_nft",
          "type": "address"
        },
        {
          "internalType": "uint256",
          "name": "_tokenId",
          "type": "uint256"
        },
        {
          "internalType": "uint256",
          "name": "_price",
          "type": "uint256"
        },
        {
          "internalType": "uint256",
          "name": "_quantity",
          "type": "uint256"
        }
      ],
      "name": "makeItem",
      "outputs": [],
      "stateMutability": "nonpayable",
      "type": "function"
    },
    {
      "inputs": [
        {
          "internalType": "uint256",
          "name": "_itemId",
          "type": "uint256"
        },
        {
          "internalType": "uint256",
          "name": "_quantity",
          "type": "uint256"
        }
      ],
      "name": "purchaseItem",
      "outputs": [],
      "stateMutability": "payable",
      "type": "function"
    }
  ],
  "bytecode": "0x60c060405234801561001057600080fd5b506040516112de3803806112de83398181016040528101906100329190610094565b60016000819055503373ffffffffffffffffffffffffffffffffffffffff1660808173ffffffffffffffffffffffffffffffffffffffff1660601b815250508060a08181525050506100de565b60008151905061008e816100c7565b92915050565b6000602082840312156100a657600080fd5b60006100b48482850161007f565b91505092915050565b6000819050919050565b6100d0816100bd565b81146100db57600080fd5b50565b60805160601c60a0516111ca610114600039600081816104f701526105a10152600081816101bd01526107e101526111ca6000f3fe6080604052600436106100705760003560e01c80637fd6f15c1161004e5780637fd6f15c146100f4578063bfb231d21461011f578063ca7dd37514610162578063e06756981461019f57610070565b806365e17c9d14610075578063696aae08146100a05780636bfb0d01146100c9575b600080fd5b34801561008157600080fd5b5061008a6101bb565b6040516100979190610bf2565b60405180910390f35b3480156100ac57600080fd5b506100c760048036038101906100c29190610a1c565b6101df565b005b3480156100d557600080fd5b506100de6104ef565b6040516100eb9190610d04565b60405180910390f35b34801561010057600080fd5b506101096104f5565b6040516101169190610d04565b60405180910390f35b34801561012b57600080fd5b5061014660048036038101906101419190610a7f565b610519565b6040516101599796959493929190610d1f565b60405180910390f35b34801561016e57600080fd5b5061018960048036038101906101849190610a7f565b61059b565b6040516101969190610d04565b60405180910390f35b6101b960048036038101906101b49190610aa8565b6105fe565b005b7f000000000000000000000000000000000000000000000000000000000000000081565b60026000541415610225576040517f08c379a000000000000000000000000000000000000000000000000000000000815260040161021c90610ce4565b60405180910390fd5b600260008190555060008211610270576040517f08c379a000000000000000000000000000000000000000000000000000000000815260040161026790610c44565b60405180910390fd5b600081116102b3576040517f08c379a00000000000000000000000000000000000000000000000000000000081526004016102aa90610cc4565b60405180910390fd5b600160008154809291906102c690610f7d565b91905055508373ffffffffffffffffffffffffffffffffffffffff166323b872dd3330866040518463ffffffff1660e01b815260040161030893929190610c0d565b600060405180830381600087803b15801561032257600080fd5b505af1158015610336573d6000803e3d6000fd5b505050506040518060e0016040528060015481526020018573ffffffffffffffffffffffffffffffffffffffff1681526020018481526020018381526020013373ffffffffffffffffffffffffffffffffffffffff16815260200182815260200160008152506002600060015481526020019081526020016000206000820151816000015560208201518160010160006101000a81548173ffffffffffffffffffffffffffffffffffffffff021916908373ffffffffffffffffffffffffffffffffffffffff160217905550604082015181600201556060820151816003015560808201518160040160006101000a81548173ffffffffffffffffffffffffffffffffffffffff021916908373ffffffffffffffffffffffffffffffffffffffff16021790555060a0820151816005015560c082015181600601559050503373ffffffffffffffffffffffffffffffffffffffff168473ffffffffffffffffffffffffffffffffffffffff167f68691bf1ff4da1d17e26d154d655adee05f2c30e99638bfce346224ffd4909956001548686866040516104d99493929190610d8e565b60405180910390a3600160008190555050505050565b60015481565b7f000000000000000000000000000000000000000000000000000000000000000081565b60026020528060005260406000206000915090508060000154908060010160009054906101000a900473ffffffffffffffffffffffffffffffffffffffff16908060020154908060030154908060040160009054906101000a900473ffffffffffffffffffffffffffffffffffffffff16908060050154908060060154905087565b600060647f000000000000000000000000000000000000000000000000000000000000000060646105cc9190610de4565b60026000858152602001908152602001600020600301546105ed9190610e6b565b6105f79190610e3a565b9050919050565b60026000541415610644576040517f08c379a000000000000000000000000000000000000000000000000000000000815260040161063b90610ce4565b60405180910390fd5b60026000819055506000816106588461059b565b6106629190610e6b565b9050600060026000858152602001908152602001600020905060008411801561068d57506001548411155b6106cc576040517f08c379a00000000000000000000000000000000000000000000000000000000081526004016106c390610ca4565b60405180910390fd5b8134101561070f576040517f08c379a000000000000000000000000000000000000000000000000000000000815260040161070690610c84565b60405180910390fd5b80600501548382600601546107249190610de4565b1115610765576040517f08c379a000000000000000000000000000000000000000000000000000000000815260040161075c90610c64565b60405180910390fd5b8060040160009054906101000a900473ffffffffffffffffffffffffffffffffffffffff1673ffffffffffffffffffffffffffffffffffffffff166108fc8483600301546107b39190610e6b565b9081150290604051600060405180830381858888f193505050501580156107de573d6000803e3d6000fd5b507f000000000000000000000000000000000000000000000000000000000000000073ffffffffffffffffffffffffffffffffffffffff166108fc8483600301546108299190610e6b565b846108349190610ec5565b9081150290604051600060405180830381858888f1935050505015801561085f573d6000803e3d6000fd5b50828160060160008282546108749190610de4565b925050819055508060010160009054906101000a900473ffffffffffffffffffffffffffffffffffffffff1673ffffffffffffffffffffffffffffffffffffffff166323b872dd303384600201546040518463ffffffff1660e01b81526004016108e093929190610c0d565b600060405180830381600087803b1580156108fa57600080fd5b505af115801561090e573d6000803e3d6000fd5b505050503373ffffffffffffffffffffffffffffffffffffffff168160040160009054906101000a900473ffffffffffffffffffffffffffffffffffffffff1673ffffffffffffffffffffffffffffffffffffffff168260010160009054906101000a900473ffffffffffffffffffffffffffffffffffffffff1673ffffffffffffffffffffffffffffffffffffffff167fd78abc9e0d4dfe3f1e95dc2c5f8a6e6a3af57ab1174162e12eb01b661099ae008785600201548660030154896040516109dc9493929190610d8e565b60405180910390a4505060016000819055505050565b600081359050610a0181611166565b92915050565b600081359050610a168161117d565b92915050565b60008060008060808587031215610a3257600080fd5b6000610a40878288016109f2565b9450506020610a5187828801610a07565b9350506040610a6287828801610a07565b9250506060610a7387828801610a07565b91505092959194509250565b600060208284031215610a9157600080fd5b6000610a9f84828501610a07565b91505092915050565b60008060408385031215610abb57600080fd5b6000610ac985828601610a07565b9250506020610ada85828601610a07565b9150509250929050565b610aed81610f0b565b82525050565b610afc81610ef9565b82525050565b610b0b81610f59565b82525050565b6000610b1e601f83610dd3565b9150610b2982611024565b602082019050919050565b6000610b41601a83610dd3565b9150610b4c8261104d565b602082019050919050565b6000610b64603383610dd3565b9150610b6f82611076565b604082019050919050565b6000610b87601283610dd3565b9150610b92826110c5565b602082019050919050565b6000610baa602283610dd3565b9150610bb5826110ee565b604082019050919050565b6000610bcd601f83610dd3565b9150610bd88261113d565b602082019050919050565b610bec81610f4f565b82525050565b6000602082019050610c076000830184610ae4565b92915050565b6000606082019050610c226000830186610af3565b610c2f6020830185610af3565b610c3c6040830184610be3565b949350505050565b60006020820190508181036000830152610c5d81610b11565b9050919050565b60006020820190508181036000830152610c7d81610b34565b9050919050565b60006020820190508181036000830152610c9d81610b57565b9050919050565b60006020820190508181036000830152610cbd81610b7a565b9050919050565b60006020820190508181036000830152610cdd81610b9d565b9050919050565b60006020820190508181036000830152610cfd81610bc0565b9050919050565b6000602082019050610d196000830184610be3565b92915050565b600060e082019050610d34600083018a610be3565b610d416020830189610b02565b610d4e6040830188610be3565b610d5b6060830187610be3565b610d686080830186610ae4565b610d7560a0830185610be3565b610d8260c0830184610be3565b98975050505050505050565b6000608082019050610da36000830187610be3565b610db06020830186610be3565b610dbd6040830185610be3565b610dca6060830184610be3565b95945050505050565b600082825260208201905092915050565b6000610def82610f4f565b9150610dfa83610f4f565b9250827fffffffffffffffffffffffffffffffffffffffffffffffffffffffffffffffff03821115610e2f57610e2e610fc6565b5b828201905092915050565b6000610e4582610f4f565b9150610e5083610f4f565b925082610e6057610e5f610ff5565b5b828204905092915050565b6000610e7682610f4f565b9150610e8183610f4f565b9250817fffffffffffffffffffffffffffffffffffffffffffffffffffffffffffffffff0483118215151615610eba57610eb9610fc6565b5b828202905092915050565b6000610ed082610f4f565b9150610edb83610f4f565b925082821015610eee57610eed610fc6565b5b828203905092915050565b6000610f0482610f2f565b9050919050565b6000610f1682610f2f565b9050919050565b6000610f2882610ef9565b9050919050565b600073ffffffffffffffffffffffffffffffffffffffff82169050919050565b6000819050919050565b6000610f6482610f6b565b9050919050565b6000610f7682610f2f565b9050919050565b6000610f8882610f4f565b91507fffffffffffffffffffffffffffffffffffffffffffffffffffffffffffffffff821415610fbb57610fba610fc6565b5b600182019050919050565b7f4e487b7100000000000000000000000000000000000000000000000000000000600052601160045260246000fd5b7f4e487b7100000000000000000000000000000000000000000000000000000000600052601260045260246000fd5b7f5072696365206d7573742062652067726561746572207468616e207a65726f00600082015250565b7f4e6f7420656e6f756768206974656d7320617661696c61626c65000000000000600082015250565b7f4e6f7420656e6f75676820657468657220746f20636f766572206974656d207060008201527f7269636520616e64206d61726b65742066656500000000000000000000000000602082015250565b7f4974656d20646f65736e27742065786973740000000000000000000000000000600082015250565b7f5175616e74697479206d7573742062652067726561746572207468616e207a6560008201527f726f000000000000000000000000000000000000000000000000000000000000602082015250565b7f5265656e7472616e637947756172643a207265656e7472616e742063616c6c00600082015250565b61116f81610f1d565b811461117a57600080fd5b50565b61118681610f4f565b811461119157600080fd5b5056fea2646970667358221220395ac6aeb469ab963415cd8077a08e1851c50c8fbe9305727039358aa42efec564736f6c63430008040033",
  "linkReferences": {},
  "deployedLinkReferences": {}
}