{
  "_format": "hh-sol-artifact-1",
  "contractName": "NFT",
  "sourceName": "src/backend/contracts/NFT.sol",
  "abi": [
    {
      "inputs": [],
      "stateMutability": "nonpayable",
      "type": "constructor"
    },
    {
      "anonymous": false,
      "inputs": [
        {
          "indexed": true,
          "internalType": "address",
          "name": "owner",
          "type": "address"
        },
        {
          "indexed": true,
          "internalType": "address",
          "name": "approved",
          "type": "address"
        },
        {
          "indexed": true,
          "internalType": "uint256",
          "name": "tokenId",
          "type": "uint256"
        }
      ],
      "name": "Approval",
      "type": "event"
    },
    {
      "anonymous": false,
      "inputs": [
        {
          "indexed": true,
          "internalType": "address",
          "name": "owner",
          "type": "address"
        },
        {
          "indexed": true,
          "internalType": "address",
          "name": "operator",
          "type": "address"
        },
        {
          "indexed": false,
          "internalType": "bool",
          "name": "approved",
          "type": "bool"
        }
      ],
      "name": "ApprovalForAll",
      "type": "event"
    },
    {
      "anonymous": false,
      "inputs": [
        {
          "indexed": true,
          "internalType": "address",
          "name": "from",
          "type": "address"
        },
        {
          "indexed": true,
          "internalType": "address",
          "name": "to",
          "type": "address"
        },
        {
          "indexed": true,
          "internalType": "uint256",
          "name": "tokenId",
          "type": "uint256"
        }
      ],
      "name": "Transfer",
      "type": "event"
    },
    {
      "inputs": [
        {
          "internalType": "address",
          "name": "to",
          "type": "address"
        },
        {
          "internalType": "uint256",
          "name": "tokenId",
          "type": "uint256"
        }
      ],
      "name": "approve",
      "outputs": [],
      "stateMutability": "nonpayable",
      "type": "function"
    },
    {
      "inputs": [
        {
          "internalType": "address",
          "name": "owner",
          "type": "address"
        }
      ],
      "name": "balanceOf",
      "outputs": [
        {
          "internalType": "uint256",
          "name": "",
          "type": "uint256"
        }
      ],
      "stateMutability": "view",
      "type": "function"
    },
    {
      "inputs": [
        {
          "internalType": "string",
          "name": "_tokenURI",
          "type": "string"
        },
        {
          "internalType": "uint256",
          "name": "_quantity",
          "type": "uint256"
        }
      ],
      "name": "batchMint",
      "outputs": [
        {
          "internalType": "uint256[]",
          "name": "",
          "type": "uint256[]"
        }
      ],
      "stateMutability": "nonpayable",
      "type": "function"
    },
    {
      "inputs": [
        {
          "internalType": "uint256",
          "name": "tokenId",
          "type": "uint256"
        }
      ],
      "name": "getApproved",
      "outputs": [
        {
          "internalType": "address",
          "name": "",
          "type": "address"
        }
      ],
      "stateMutability": "view",
      "type": "function"
    },
    {
      "inputs": [
        {
          "internalType": "address",
          "name": "owner",
          "type": "address"
        },
        {
          "internalType": "address",
          "name": "operator",
          "type": "address"
        }
      ],
      "name": "isApprovedForAll",
      "outputs": [
        {
          "internalType": "bool",
          "name": "",
          "type": "bool"
        }
      ],
      "stateMutability": "view",
      "type": "function"
    },
    {
      "inputs": [
        {
          "internalType": "string",
          "name": "_tokenURI",
          "type": "string"
        }
      ],
      "name": "mint",
      "outputs": [
        {
          "internalType": "uint256",
          "name": "",
          "type": "uint256"
        }
      ],
      "stateMutability": "nonpayable",
      "type": "function"
    },
    {
      "inputs": [],
      "name": "name",
      "outputs": [
        {
          "internalType": "string",
          "name": "",
          "type": "string"
        }
      ],
      "stateMutability": "view",
      "type": "function"
    },
    {
      "inputs": [
        {
          "internalType": "uint256",
          "name": "tokenId",
          "type": "uint256"
        }
      ],
      "name": "ownerOf",
      "outputs": [
        {
          "internalType": "address",
          "name": "",
          "type": "address"
        }
      ],
      "stateMutability": "view",
      "type": "function"
    },
    {
      "inputs": [
        {
          "internalType": "address",
          "name": "from",
          "type": "address"
        },
        {
          "internalType": "address",
          "name": "to",
          "type": "address"
        },
        {
          "internalType": "uint256",
          "name": "tokenId",
          "type": "uint256"
        }
      ],
      "name": "safeTransferFrom",
      "outputs": [],
      "stateMutability": "nonpayable",
      "type": "function"
    },
    {
      "inputs": [
        {
          "internalType": "address",
          "name": "from",
          "type": "address"
        },
        {
          "internalType": "address",
          "name": "to",
          "type": "address"
        },
        {
          "internalType": "uint256",
          "name": "tokenId",
          "type": "uint256"
        },
        {
          "internalType": "bytes",
          "name": "_data",
          "type": "bytes"
        }
      ],
      "name": "safeTransferFrom",
      "outputs": [],
      "stateMutability": "nonpayable",
      "type": "function"
    },
    {
      "inputs": [
        {
          "internalType": "address",
          "name": "operator",
          "type": "address"
        },
        {
          "internalType": "bool",
          "name": "approved",
          "type": "bool"
        }
      ],
      "name": "setApprovalForAll",
      "outputs": [],
      "stateMutability": "nonpayable",
      "type": "function"
    },
    {
      "inputs": [
        {
          "internalType": "bytes4",
          "name": "interfaceId",
          "type": "bytes4"
        }
      ],
      "name": "supportsInterface",
      "outputs": [
        {
          "internalType": "bool",
          "name": "",
          "type": "bool"
        }
      ],
      "stateMutability": "view",
      "type": "function"
    },
    {
      "inputs": [],
      "name": "symbol",
      "outputs": [
        {
          "internalType": "string",
          "name": "",
          "type": "string"
        }
      ],
      "stateMutability": "view",
      "type": "function"
    },
    {
      "inputs": [],
      "name": "tokenCount",
      "outputs": [
        {
          "internalType": "uint256",
          "name": "",
          "type": "uint256"
        }
      ],
      "stateMutability": "view",
      "type": "function"
    },
    {
      "inputs": [
        {
          "internalType": "uint256",
          "name": "tokenId",
          "type": "uint256"
        }
      ],
      "name": "tokenURI",
      "outputs": [
        {
          "internalType": "string",
          "name": "",
          "type": "string"
        }
      ],
      "stateMutability": "view",
      "type": "function"
    },
    {
      "inputs": [
        {
          "internalType": "address",
          "name": "from",
          "type": "address"
        },
        {
          "internalType": "address",
          "name": "to",
          "type": "address"
        },
        {
          "internalType": "uint256",
          "name": "tokenId",
          "type": "uint256"
        }
      ],
      "name": "transferFrom",
      "outputs": [],
      "stateMutability": "nonpayable",
      "type": "function"
    }
  ],
  "bytecode": "0x60806040523480156200001157600080fd5b506040518060400160405280600881526020017f44417070204e46540000000000000000000000000000000000000000000000008152506040518060400160405280600481526020017f4441505000000000000000000000000000000000000000000000000000000000815250816000908051906020019062000096929190620000b8565b508060019080519060200190620000af929190620000b8565b505050620001cd565b828054620000c69062000168565b90600052602060002090601f016020900481019282620000ea576000855562000136565b82601f106200010557805160ff191683800117855562000136565b8280016001018555821562000136579182015b828111156200013557825182559160200191906001019062000118565b5b50905062000145919062000149565b5090565b5b80821115620001645760008160009055506001016200014a565b5090565b600060028204905060018216806200018157607f821691505b602082108114156200019857620001976200019e565b5b50919050565b7f4e487b7100000000000000000000000000000000000000000000000000000000600052602260045260246000fd5b612f6980620001dd6000396000f3fe608060405234801561001057600080fd5b50600436106101005760003560e01c80637cc918d111610097578063b88d4fde11610066578063b88d4fde146102bf578063c87b56dd146102db578063d85d3d271461030b578063e985e9c51461033b57610100565b80637cc918d11461023757806395d89b41146102675780639f181b5e14610285578063a22cb465146102a357610100565b806323b872dd116100d357806323b872dd1461019f57806342842e0e146101bb5780636352211e146101d757806370a082311461020757610100565b806301ffc9a71461010557806306fdde0314610135578063081812fc14610153578063095ea7b314610183575b600080fd5b61011f600480360381019061011a9190611e0f565b61036b565b60405161012c9190612374565b60405180910390f35b61013d61044d565b60405161014a919061238f565b60405180910390f35b61016d60048036038101906101689190611ef6565b6104df565b60405161017a91906122eb565b60405180910390f35b61019d60048036038101906101989190611dd3565b610564565b005b6101b960048036038101906101b49190611ccd565b61067c565b005b6101d560048036038101906101d09190611ccd565b6106dc565b005b6101f160048036038101906101ec9190611ef6565b6106fc565b6040516101fe91906122eb565b60405180910390f35b610221600480360381019061021c9190611c68565b6107ae565b60405161022e91906125d1565b60405180910390f35b610251600480360381019061024c9190611ea2565b610866565b60405161025e9190612352565b60405180910390f35b61026f6109bf565b60405161027c919061238f565b60405180910390f35b61028d610a51565b60405161029a91906125d1565b60405180910390f35b6102bd60048036038101906102b89190611d97565b610a57565b005b6102d960048036038101906102d49190611d1c565b610a6d565b005b6102f560048036038101906102f09190611ef6565b610acf565b604051610302919061238f565b60405180910390f35b61032560048036038101906103209190611e61565b610c21565b60405161033291906125d1565b60405180910390f35b61035560048036038101906103509190611c91565b610c5d565b6040516103629190612374565b60405180910390f35b60007f80ac58cd000000000000000000000000000000000000000000000000000000007bffffffffffffffffffffffffffffffffffffffffffffffffffffffff1916827bffffffffffffffffffffffffffffffffffffffffffffffffffffffff1916148061043657507f5b5e139f000000000000000000000000000000000000000000000000000000007bffffffffffffffffffffffffffffffffffffffffffffffffffffffff1916827bffffffffffffffffffffffffffffffffffffffffffffffffffffffff1916145b80610446575061044582610cf1565b5b9050919050565b60606000805461045c90612860565b80601f016020809104026020016040519081016040528092919081815260200182805461048890612860565b80156104d55780601f106104aa576101008083540402835291602001916104d5565b820191906000526020600020905b8154815290600101906020018083116104b857829003601f168201915b5050505050905090565b60006104ea82610d5b565b610529576040517f08c379a000000000000000000000000000000000000000000000000000000000815260040161052090612531565b60405180910390fd5b6004600083815260200190815260200160002060009054906101000a900473ffffffffffffffffffffffffffffffffffffffff169050919050565b600061056f826106fc565b90508073ffffffffffffffffffffffffffffffffffffffff168373ffffffffffffffffffffffffffffffffffffffff1614156105e0576040517f08c379a00000000000000000000000000000000000000000000000000000000081526004016105d790612591565b60405180910390fd5b8073ffffffffffffffffffffffffffffffffffffffff166105ff610dc7565b73ffffffffffffffffffffffffffffffffffffffff16148061062e575061062d81610628610dc7565b610c5d565b5b61066d576040517f08c379a000000000000000000000000000000000000000000000000000000000815260040161066490612471565b60405180910390fd5b6106778383610dcf565b505050565b61068d610687610dc7565b82610e88565b6106cc576040517f08c379a00000000000000000000000000000000000000000000000000000000081526004016106c3906125b1565b60405180910390fd5b6106d7838383610f66565b505050565b6106f783838360405180602001604052806000815250610a6d565b505050565b6000806002600084815260200190815260200160002060009054906101000a900473ffffffffffffffffffffffffffffffffffffffff169050600073ffffffffffffffffffffffffffffffffffffffff168173ffffffffffffffffffffffffffffffffffffffff1614156107a5576040517f08c379a000000000000000000000000000000000000000000000000000000000815260040161079c906124b1565b60405180910390fd5b80915050919050565b60008073ffffffffffffffffffffffffffffffffffffffff168273ffffffffffffffffffffffffffffffffffffffff16141561081f576040517f08c379a000000000000000000000000000000000000000000000000000000000815260040161081690612491565b60405180910390fd5b600360008373ffffffffffffffffffffffffffffffffffffffff1673ffffffffffffffffffffffffffffffffffffffff168152602001908152602001600020549050919050565b6060600082116108ab576040517f08c379a00000000000000000000000000000000000000000000000000000000081526004016108a290612571565b60405180910390fd5b60008267ffffffffffffffff8111156108ed577f4e487b7100000000000000000000000000000000000000000000000000000000600052604160045260246000fd5b60405190808252806020026020018201604052801561091b5781602001602082028036833780820191505090505b50905060005b838110156109b4576007600081548092919061093c906128c3565b919050555061094d336007546111cd565b610959600754866111eb565b600754828281518110610995577f4e487b7100000000000000000000000000000000000000000000000000000000600052603260045260246000fd5b60200260200101818152505080806109ac906128c3565b915050610921565b508091505092915050565b6060600180546109ce90612860565b80601f01602080910402602001604051908101604052809291908181526020018280546109fa90612860565b8015610a475780601f10610a1c57610100808354040283529160200191610a47565b820191906000526020600020905b815481529060010190602001808311610a2a57829003601f168201915b5050505050905090565b60075481565b610a69610a62610dc7565b838361125f565b5050565b610a7e610a78610dc7565b83610e88565b610abd576040517f08c379a0000000000000000000000000000000000000000000000000000000008152600401610ab4906125b1565b60405180910390fd5b610ac9848484846113cc565b50505050565b6060610ada82610d5b565b610b19576040517f08c379a0000000000000000000000000000000000000000000000000000000008152600401610b1090612511565b60405180910390fd5b6000600660008481526020019081526020016000208054610b3990612860565b80601f0160208091040260200160405190810160405280929190818152602001828054610b6590612860565b8015610bb25780601f10610b8757610100808354040283529160200191610bb2565b820191906000526020600020905b815481529060010190602001808311610b9557829003601f168201915b505050505090506000610bc3611428565b9050600081511415610bd9578192505050610c1c565b600082511115610c0e578082604051602001610bf69291906122c7565b60405160208183030381529060405292505050610c1c565b610c178461143f565b925050505b919050565b600060076000815480929190610c36906128c3565b9190505550610c47336007546111cd565b610c53600754836111eb565b6007549050919050565b6000600560008473ffffffffffffffffffffffffffffffffffffffff1673ffffffffffffffffffffffffffffffffffffffff16815260200190815260200160002060008373ffffffffffffffffffffffffffffffffffffffff1673ffffffffffffffffffffffffffffffffffffffff16815260200190815260200160002060009054906101000a900460ff16905092915050565b60007f01ffc9a7000000000000000000000000000000000000000000000000000000007bffffffffffffffffffffffffffffffffffffffffffffffffffffffff1916827bffffffffffffffffffffffffffffffffffffffffffffffffffffffff1916149050919050565b60008073ffffffffffffffffffffffffffffffffffffffff166002600084815260200190815260200160002060009054906101000a900473ffffffffffffffffffffffffffffffffffffffff1673ffffffffffffffffffffffffffffffffffffffff1614159050919050565b600033905090565b816004600083815260200190815260200160002060006101000a81548173ffffffffffffffffffffffffffffffffffffffff021916908373ffffffffffffffffffffffffffffffffffffffff160217905550808273ffffffffffffffffffffffffffffffffffffffff16610e42836106fc565b73ffffffffffffffffffffffffffffffffffffffff167f8c5be1e5ebec7d5bd14f71427d1e84f3dd0314c0f7b2291e5b200ac8c7c3b92560405160405180910390a45050565b6000610e9382610d5b565b610ed2576040517f08c379a0000000000000000000000000000000000000000000000000000000008152600401610ec990612451565b60405180910390fd5b6000610edd836106fc565b90508073ffffffffffffffffffffffffffffffffffffffff168473ffffffffffffffffffffffffffffffffffffffff161480610f4c57508373ffffffffffffffffffffffffffffffffffffffff16610f34846104df565b73ffffffffffffffffffffffffffffffffffffffff16145b80610f5d5750610f5c8185610c5d565b5b91505092915050565b8273ffffffffffffffffffffffffffffffffffffffff16610f86826106fc565b73ffffffffffffffffffffffffffffffffffffffff1614610fdc576040517f08c379a0000000000000000000000000000000000000000000000000000000008152600401610fd3906123d1565b60405180910390fd5b600073ffffffffffffffffffffffffffffffffffffffff168273ffffffffffffffffffffffffffffffffffffffff16141561104c576040517f08c379a000000000000000000000000000000000000000000000000000000000815260040161104390612411565b60405180910390fd5b6110578383836114e6565b611062600082610dcf565b6001600360008573ffffffffffffffffffffffffffffffffffffffff1673ffffffffffffffffffffffffffffffffffffffff16815260200190815260200160002060008282546110b29190612776565b925050819055506001600360008473ffffffffffffffffffffffffffffffffffffffff1673ffffffffffffffffffffffffffffffffffffffff168152602001908152602001600020600082825461110991906126ef565b92505081905550816002600083815260200190815260200160002060006101000a81548173ffffffffffffffffffffffffffffffffffffffff021916908373ffffffffffffffffffffffffffffffffffffffff160217905550808273ffffffffffffffffffffffffffffffffffffffff168473ffffffffffffffffffffffffffffffffffffffff167fddf252ad1be2c89b69c2b068fc378daa952ba7f163c4a11628f55a4df523b3ef60405160405180910390a46111c88383836114eb565b505050565b6111e78282604051806020016040528060008152506114f0565b5050565b6111f482610d5b565b611233576040517f08c379a000000000000000000000000000000000000000000000000000000000815260040161122a906124d1565b60405180910390fd5b8060066000848152602001908152602001600020908051906020019061125a929190611a8c565b505050565b8173ffffffffffffffffffffffffffffffffffffffff168373ffffffffffffffffffffffffffffffffffffffff1614156112ce576040517f08c379a00000000000000000000000000000000000000000000000000000000081526004016112c590612431565b60405180910390fd5b80600560008573ffffffffffffffffffffffffffffffffffffffff1673ffffffffffffffffffffffffffffffffffffffff16815260200190815260200160002060008473ffffffffffffffffffffffffffffffffffffffff1673ffffffffffffffffffffffffffffffffffffffff16815260200190815260200160002060006101000a81548160ff0219169083151502179055508173ffffffffffffffffffffffffffffffffffffffff168373ffffffffffffffffffffffffffffffffffffffff167f17307eab39ab6107e8899845ad3d59bd9653f200f220920489ca2b5937696c31836040516113bf9190612374565b60405180910390a3505050565b6113d7848484610f66565b6113e38484848461154b565b611422576040517f08c379a0000000000000000000000000000000000000000000000000000000008152600401611419906123b1565b60405180910390fd5b50505050565b606060405180602001604052806000815250905090565b606061144a82610d5b565b611489576040517f08c379a000000000000000000000000000000000000000000000000000000000815260040161148090612551565b60405180910390fd5b6000611493611428565b905060008151116114b357604051806020016040528060008152506114de565b806114bd846116e2565b6040516020016114ce9291906122c7565b6040516020818303038152906040525b915050919050565b505050565b505050565b6114fa838361188f565b611507600084848461154b565b611546576040517f08c379a000000000000000000000000000000000000000000000000000000000815260040161153d906123b1565b60405180910390fd5b505050565b600061156c8473ffffffffffffffffffffffffffffffffffffffff16611a69565b156116d5578373ffffffffffffffffffffffffffffffffffffffff1663150b7a02611595610dc7565b8786866040518563ffffffff1660e01b81526004016115b79493929190612306565b602060405180830381600087803b1580156115d157600080fd5b505af192505050801561160257506040513d601f19601f820116820180604052508101906115ff9190611e38565b60015b611685573d8060008114611632576040519150601f19603f3d011682016040523d82523d6000602084013e611637565b606091505b5060008151141561167d576040517f08c379a0000000000000000000000000000000000000000000000000000000008152600401611674906123b1565b60405180910390fd5b805181602001fd5b63150b7a0260e01b7bffffffffffffffffffffffffffffffffffffffffffffffffffffffff1916817bffffffffffffffffffffffffffffffffffffffffffffffffffffffff1916149150506116da565b600190505b949350505050565b6060600082141561172a576040518060400160405280600181526020017f3000000000000000000000000000000000000000000000000000000000000000815250905061188a565b600082905060005b6000821461175c578080611745906128c3565b915050600a826117559190612745565b9150611732565b60008167ffffffffffffffff81111561179e577f4e487b7100000000000000000000000000000000000000000000000000000000600052604160045260246000fd5b6040519080825280601f01601f1916602001820160405280156117d05781602001600182028036833780820191505090505b5090505b60008514611883576001826117e99190612776565b9150600a856117f8919061290c565b603061180491906126ef565b60f81b818381518110611840577f4e487b7100000000000000000000000000000000000000000000000000000000600052603260045260246000fd5b60200101907effffffffffffffffffffffffffffffffffffffffffffffffffffffffffffff1916908160001a905350600a8561187c9190612745565b94506117d4565b8093505050505b919050565b600073ffffffffffffffffffffffffffffffffffffffff168273ffffffffffffffffffffffffffffffffffffffff1614156118ff576040517f08c379a00000000000000000000000000000000000000000000000000000000081526004016118f6906124f1565b60405180910390fd5b61190881610d5b565b15611948576040517f08c379a000000000000000000000000000000000000000000000000000000000815260040161193f906123f1565b60405180910390fd5b611954600083836114e6565b6001600360008473ffffffffffffffffffffffffffffffffffffffff1673ffffffffffffffffffffffffffffffffffffffff16815260200190815260200160002060008282546119a491906126ef565b92505081905550816002600083815260200190815260200160002060006101000a81548173ffffffffffffffffffffffffffffffffffffffff021916908373ffffffffffffffffffffffffffffffffffffffff160217905550808273ffffffffffffffffffffffffffffffffffffffff16600073ffffffffffffffffffffffffffffffffffffffff167fddf252ad1be2c89b69c2b068fc378daa952ba7f163c4a11628f55a4df523b3ef60405160405180910390a4611a65600083836114eb565b5050565b6000808273ffffffffffffffffffffffffffffffffffffffff163b119050919050565b828054611a9890612860565b90600052602060002090601f016020900481019282611aba5760008555611b01565b82601f10611ad357805160ff1916838001178555611b01565b82800160010185558215611b01579182015b82811115611b00578251825591602001919060010190611ae5565b5b509050611b0e9190611b12565b5090565b5b80821115611b2b576000816000905550600101611b13565b5090565b6000611b42611b3d84612611565b6125ec565b905082815260208101848484011115611b5a57600080fd5b611b6584828561281e565b509392505050565b6000611b80611b7b84612642565b6125ec565b905082815260208101848484011115611b9857600080fd5b611ba384828561281e565b509392505050565b600081359050611bba81612ed7565b92915050565b600081359050611bcf81612eee565b92915050565b600081359050611be481612f05565b92915050565b600081519050611bf981612f05565b92915050565b600082601f830112611c1057600080fd5b8135611c20848260208601611b2f565b91505092915050565b600082601f830112611c3a57600080fd5b8135611c4a848260208601611b6d565b91505092915050565b600081359050611c6281612f1c565b92915050565b600060208284031215611c7a57600080fd5b6000611c8884828501611bab565b91505092915050565b60008060408385031215611ca457600080fd5b6000611cb285828601611bab565b9250506020611cc385828601611bab565b9150509250929050565b600080600060608486031215611ce257600080fd5b6000611cf086828701611bab565b9350506020611d0186828701611bab565b9250506040611d1286828701611c53565b9150509250925092565b60008060008060808587031215611d3257600080fd5b6000611d4087828801611bab565b9450506020611d5187828801611bab565b9350506040611d6287828801611c53565b925050606085013567ffffffffffffffff811115611d7f57600080fd5b611d8b87828801611bff565b91505092959194509250565b60008060408385031215611daa57600080fd5b6000611db885828601611bab565b9250506020611dc985828601611bc0565b9150509250929050565b60008060408385031215611de657600080fd5b6000611df485828601611bab565b9250506020611e0585828601611c53565b9150509250929050565b600060208284031215611e2157600080fd5b6000611e2f84828501611bd5565b91505092915050565b600060208284031215611e4a57600080fd5b6000611e5884828501611bea565b91505092915050565b600060208284031215611e7357600080fd5b600082013567ffffffffffffffff811115611e8d57600080fd5b611e9984828501611c29565b91505092915050565b60008060408385031215611eb557600080fd5b600083013567ffffffffffffffff811115611ecf57600080fd5b611edb85828601611c29565b9250506020611eec85828601611c53565b9150509250929050565b600060208284031215611f0857600080fd5b6000611f1684828501611c53565b91505092915050565b6000611f2b83836122a9565b60208301905092915050565b611f40816127aa565b82525050565b6000611f5182612683565b611f5b81856126b1565b9350611f6683612673565b8060005b83811015611f97578151611f7e8882611f1f565b9750611f89836126a4565b925050600181019050611f6a565b5085935050505092915050565b611fad816127bc565b82525050565b6000611fbe8261268e565b611fc881856126c2565b9350611fd881856020860161282d565b611fe1816129f9565b840191505092915050565b6000611ff782612699565b61200181856126d3565b935061201181856020860161282d565b61201a816129f9565b840191505092915050565b600061203082612699565b61203a81856126e4565b935061204a81856020860161282d565b80840191505092915050565b60006120636032836126d3565b915061206e82612a0a565b604082019050919050565b60006120866025836126d3565b915061209182612a59565b604082019050919050565b60006120a9601c836126d3565b91506120b482612aa8565b602082019050919050565b60006120cc6024836126d3565b91506120d782612ad1565b604082019050919050565b60006120ef6019836126d3565b91506120fa82612b20565b602082019050919050565b6000612112602c836126d3565b915061211d82612b49565b604082019050919050565b60006121356038836126d3565b915061214082612b98565b604082019050919050565b6000612158602a836126d3565b915061216382612be7565b604082019050919050565b600061217b6029836126d3565b915061218682612c36565b604082019050919050565b600061219e602e836126d3565b91506121a982612c85565b604082019050919050565b60006121c16020836126d3565b91506121cc82612cd4565b602082019050919050565b60006121e46031836126d3565b91506121ef82612cfd565b604082019050919050565b6000612207602c836126d3565b915061221282612d4c565b604082019050919050565b600061222a602f836126d3565b915061223582612d9b565b604082019050919050565b600061224d6022836126d3565b915061225882612dea565b604082019050919050565b60006122706021836126d3565b915061227b82612e39565b604082019050919050565b60006122936031836126d3565b915061229e82612e88565b604082019050919050565b6122b281612814565b82525050565b6122c181612814565b82525050565b60006122d38285612025565b91506122df8284612025565b91508190509392505050565b60006020820190506123006000830184611f37565b92915050565b600060808201905061231b6000830187611f37565b6123286020830186611f37565b61233560408301856122b8565b81810360608301526123478184611fb3565b905095945050505050565b6000602082019050818103600083015261236c8184611f46565b905092915050565b60006020820190506123896000830184611fa4565b92915050565b600060208201905081810360008301526123a98184611fec565b905092915050565b600060208201905081810360008301526123ca81612056565b9050919050565b600060208201905081810360008301526123ea81612079565b9050919050565b6000602082019050818103600083015261240a8161209c565b9050919050565b6000602082019050818103600083015261242a816120bf565b9050919050565b6000602082019050818103600083015261244a816120e2565b9050919050565b6000602082019050818103600083015261246a81612105565b9050919050565b6000602082019050818103600083015261248a81612128565b9050919050565b600060208201905081810360008301526124aa8161214b565b9050919050565b600060208201905081810360008301526124ca8161216e565b9050919050565b600060208201905081810360008301526124ea81612191565b9050919050565b6000602082019050818103600083015261250a816121b4565b9050919050565b6000602082019050818103600083015261252a816121d7565b9050919050565b6000602082019050818103600083015261254a816121fa565b9050919050565b6000602082019050818103600083015261256a8161221d565b9050919050565b6000602082019050818103600083015261258a81612240565b9050919050565b600060208201905081810360008301526125aa81612263565b9050919050565b600060208201905081810360008301526125ca81612286565b9050919050565b60006020820190506125e660008301846122b8565b92915050565b60006125f6612607565b90506126028282612892565b919050565b6000604051905090565b600067ffffffffffffffff82111561262c5761262b6129ca565b5b612635826129f9565b9050602081019050919050565b600067ffffffffffffffff82111561265d5761265c6129ca565b5b612666826129f9565b9050602081019050919050565b6000819050602082019050919050565b600081519050919050565b600081519050919050565b600081519050919050565b6000602082019050919050565b600082825260208201905092915050565b600082825260208201905092915050565b600082825260208201905092915050565b600081905092915050565b60006126fa82612814565b915061270583612814565b9250827fffffffffffffffffffffffffffffffffffffffffffffffffffffffffffffffff0382111561273a5761273961293d565b5b828201905092915050565b600061275082612814565b915061275b83612814565b92508261276b5761276a61296c565b5b828204905092915050565b600061278182612814565b915061278c83612814565b92508282101561279f5761279e61293d565b5b828203905092915050565b60006127b5826127f4565b9050919050565b60008115159050919050565b60007fffffffff0000000000000000000000000000000000000000000000000000000082169050919050565b600073ffffffffffffffffffffffffffffffffffffffff82169050919050565b6000819050919050565b82818337600083830152505050565b60005b8381101561284b578082015181840152602081019050612830565b8381111561285a576000848401525b50505050565b6000600282049050600182168061287857607f821691505b6020821081141561288c5761288b61299b565b5b50919050565b61289b826129f9565b810181811067ffffffffffffffff821117156128ba576128b96129ca565b5b80604052505050565b60006128ce82612814565b91507fffffffffffffffffffffffffffffffffffffffffffffffffffffffffffffffff8214156129015761290061293d565b5b600182019050919050565b600061291782612814565b915061292283612814565b9250826129325761293161296c565b5b828206905092915050565b7f4e487b7100000000000000000000000000000000000000000000000000000000600052601160045260246000fd5b7f4e487b7100000000000000000000000000000000000000000000000000000000600052601260045260246000fd5b7f4e487b7100000000000000000000000000000000000000000000000000000000600052602260045260246000fd5b7f4e487b7100000000000000000000000000000000000000000000000000000000600052604160045260246000fd5b6000601f19601f8301169050919050565b7f4552433732313a207472616e7366657220746f206e6f6e20455243373231526560008201527f63656976657220696d706c656d656e7465720000000000000000000000000000602082015250565b7f4552433732313a207472616e736665722066726f6d20696e636f72726563742060008201527f6f776e6572000000000000000000000000000000000000000000000000000000602082015250565b7f4552433732313a20746f6b656e20616c7265616479206d696e74656400000000600082015250565b7f4552433732313a207472616e7366657220746f20746865207a65726f2061646460008201527f7265737300000000000000000000000000000000000000000000000000000000602082015250565b7f4552433732313a20617070726f766520746f2063616c6c657200000000000000600082015250565b7f4552433732313a206f70657261746f7220717565727920666f72206e6f6e657860008201527f697374656e7420746f6b656e0000000000000000000000000000000000000000602082015250565b7f4552433732313a20617070726f76652063616c6c6572206973206e6f74206f7760008201527f6e6572206e6f7220617070726f76656420666f7220616c6c0000000000000000602082015250565b7f4552433732313a2062616c616e636520717565727920666f7220746865207a6560008201527f726f206164647265737300000000000000000000000000000000000000000000602082015250565b7f4552433732313a206f776e657220717565727920666f72206e6f6e657869737460008201527f656e7420746f6b656e0000000000000000000000000000000000000000000000602082015250565b7f45524337323155524953746f726167653a2055524920736574206f66206e6f6e60008201527f6578697374656e7420746f6b656e000000000000000000000000000000000000602082015250565b7f4552433732313a206d696e7420746f20746865207a65726f2061646472657373600082015250565b7f45524337323155524953746f726167653a2055524920717565727920666f722060008201527f6e6f6e6578697374656e7420746f6b656e000000000000000000000000000000602082015250565b7f4552433732313a20617070726f76656420717565727920666f72206e6f6e657860008201527f697374656e7420746f6b656e0000000000000000000000000000000000000000602082015250565b7f4552433732314d657461646174613a2055524920717565727920666f72206e6f60008201527f6e6578697374656e7420746f6b656e0000000000000000000000000000000000602082015250565b7f5175616e74697479206d7573742062652067726561746572207468616e207a6560008201527f726f000000000000000000000000000000000000000000000000000000000000602082015250565b7f4552433732313a20617070726f76616c20746f2063757272656e74206f776e6560008201527f7200000000000000000000000000000000000000000000000000000000000000602082015250565b7f4552433732313a207472616e736665722063616c6c6572206973206e6f74206f60008201527f776e6572206e6f7220617070726f766564000000000000000000000000000000602082015250565b612ee0816127aa565b8114612eeb57600080fd5b50565b612ef7816127bc565b8114612f0257600080fd5b50565b612f0e816127c8565b8114612f1957600080fd5b50565b612f2581612814565b8114612f3057600080fd5b5056fea26469706673582212201aa0d203f69100dd5f04f879ee38dab0503d5bfc43c4c4fdf142d855c0e6ac8764736f6c63430008040033",
  "linkReferences": {},
  "deployedLinkReferences": {}
}